{
  "_format": "hh-sol-artifact-1",
  "contractName": "lottery",
  "sourceName": "contracts/lottery.sol",
  "abi": [
    {
      "inputs": [
        {
          "internalType": "uint256",
          "name": "_entranceFee",
          "type": "uint256"
        },
        {
          "internalType": "address",
          "name": "_vrfCoordinator",
          "type": "address"
        },
        {
          "internalType": "bytes32",
          "name": "_gasLimit",
          "type": "bytes32"
        },
        {
          "internalType": "uint64",
          "name": "_subscriptionId",
          "type": "uint64"
        },
        {
          "internalType": "uint32",
          "name": "_callbackGasLimit",
          "type": "uint32"
        },
        {
          "internalType": "uint256",
          "name": "_interval",
          "type": "uint256"
        }
      ],
      "stateMutability": "nonpayable",
      "type": "constructor"
    },
    {
      "inputs": [
        {
          "internalType": "address",
          "name": "have",
          "type": "address"
        },
        {
          "internalType": "address",
          "name": "want",
          "type": "address"
        }
      ],
      "name": "OnlyCoordinatorCanFulfill",
      "type": "error"
    },
    {
      "inputs": [],
      "name": "lottery__TransactionFailed",
      "type": "error"
    },
    {
      "inputs": [
        {
          "internalType": "uint256",
          "name": "currentBalance",
          "type": "uint256"
        },
        {
          "internalType": "uint256",
          "name": "numPlayer",
          "type": "uint256"
        },
        {
          "internalType": "uint256",
          "name": "lotteryState",
          "type": "uint256"
        }
      ],
      "name": "lottery__UpkeepNotNeeded",
      "type": "error"
    },
    {
      "anonymous": false,
      "inputs": [
        {
          "indexed": true,
          "internalType": "address",
          "name": "player",
          "type": "address"
        }
      ],
      "name": "LotteryEnter",
      "type": "event"
    },
    {
      "anonymous": false,
      "inputs": [
        {
          "indexed": true,
          "internalType": "uint256",
          "name": "requestId",
          "type": "uint256"
        }
      ],
      "name": "RequestedRaffleWinner",
      "type": "event"
    },
    {
      "anonymous": false,
      "inputs": [
        {
          "indexed": true,
          "internalType": "address",
          "name": "winner",
          "type": "address"
        }
      ],
      "name": "WinnerPicked",
      "type": "event"
    },
    {
      "inputs": [
        {
          "internalType": "bytes",
          "name": "",
          "type": "bytes"
        }
      ],
      "name": "checkUpkeep",
      "outputs": [
        {
          "internalType": "bool",
          "name": "",
          "type": "bool"
        },
        {
          "internalType": "bytes",
          "name": "",
          "type": "bytes"
        }
      ],
      "stateMutability": "nonpayable",
      "type": "function"
    },
    {
      "inputs": [],
      "name": "enterLottery",
      "outputs": [],
      "stateMutability": "payable",
      "type": "function"
    },
    {
      "inputs": [],
      "name": "getEntranceFee",
      "outputs": [
        {
          "internalType": "uint256",
          "name": "",
          "type": "uint256"
        }
      ],
      "stateMutability": "view",
      "type": "function"
    },
    {
      "inputs": [],
      "name": "getLastestTimeStamp",
      "outputs": [
        {
          "internalType": "uint256",
          "name": "",
          "type": "uint256"
        }
      ],
      "stateMutability": "view",
      "type": "function"
    },
    {
      "inputs": [],
      "name": "getLotteryState",
      "outputs": [
        {
          "internalType": "enum lottery.LotteryState",
          "name": "",
          "type": "uint8"
        }
      ],
      "stateMutability": "view",
      "type": "function"
    },
    {
      "inputs": [],
      "name": "getNumOfPlayers",
      "outputs": [
        {
          "internalType": "uint256",
          "name": "",
          "type": "uint256"
        }
      ],
      "stateMutability": "view",
      "type": "function"
    },
    {
      "inputs": [],
      "name": "getNumWords",
      "outputs": [
        {
          "internalType": "uint256",
          "name": "",
          "type": "uint256"
        }
      ],
      "stateMutability": "pure",
      "type": "function"
    },
    {
      "inputs": [
        {
          "internalType": "uint256",
          "name": "index",
          "type": "uint256"
        }
      ],
      "name": "getPlayer",
      "outputs": [
        {
          "internalType": "address",
          "name": "",
          "type": "address"
        }
      ],
      "stateMutability": "view",
      "type": "function"
    },
    {
      "inputs": [],
      "name": "getRecentWinner",
      "outputs": [
        {
          "internalType": "address",
          "name": "",
          "type": "address"
        }
      ],
      "stateMutability": "view",
      "type": "function"
    },
    {
      "inputs": [],
      "name": "getRequestionConfirmations",
      "outputs": [
        {
          "internalType": "uint256",
          "name": "",
          "type": "uint256"
        }
      ],
      "stateMutability": "pure",
      "type": "function"
    },
    {
      "inputs": [
        {
          "internalType": "bytes",
          "name": "",
          "type": "bytes"
        }
      ],
      "name": "performUpkeep",
      "outputs": [],
      "stateMutability": "nonpayable",
      "type": "function"
    },
    {
      "inputs": [
        {
          "internalType": "uint256",
          "name": "requestId",
          "type": "uint256"
        },
        {
          "internalType": "uint256[]",
          "name": "randomWords",
          "type": "uint256[]"
        }
      ],
      "name": "rawFulfillRandomWords",
      "outputs": [],
      "stateMutability": "nonpayable",
      "type": "function"
    }
  ],
  "bytecode": "0x6101606040523480156200001257600080fd5b5060405162001859380380620018598339818101604052810190620000389190620002a0565b848073ffffffffffffffffffffffffffffffffffffffff1660808173ffffffffffffffffffffffffffffffffffffffff1660601b81525050508560a081815250508473ffffffffffffffffffffffffffffffffffffffff1660c08173ffffffffffffffffffffffffffffffffffffffff1660601b815250508360e081815250508267ffffffffffffffff166101008167ffffffffffffffff1660c01b815250508163ffffffff166101208163ffffffff1660e01b815250506000600160146101000a81548160ff021916908360018111156200011957620001186200033c565b5b0217905550426002819055508061014081815250505050505050506200036b565b600080fd5b6000819050919050565b62000154816200013f565b81146200016057600080fd5b50565b600081519050620001748162000149565b92915050565b600073ffffffffffffffffffffffffffffffffffffffff82169050919050565b6000620001a7826200017a565b9050919050565b620001b9816200019a565b8114620001c557600080fd5b50565b600081519050620001d981620001ae565b92915050565b6000819050919050565b620001f481620001df565b81146200020057600080fd5b50565b6000815190506200021481620001e9565b92915050565b600067ffffffffffffffff82169050919050565b62000239816200021a565b81146200024557600080fd5b50565b60008151905062000259816200022e565b92915050565b600063ffffffff82169050919050565b6200027a816200025f565b81146200028657600080fd5b50565b6000815190506200029a816200026f565b92915050565b60008060008060008060c08789031215620002c057620002bf6200013a565b5b6000620002d089828a0162000163565b9650506020620002e389828a01620001c8565b9550506040620002f689828a0162000203565b94505060606200030989828a0162000248565b93505060806200031c89828a0162000289565b92505060a06200032f89828a0162000163565b9150509295509295509295565b7f4e487b7100000000000000000000000000000000000000000000000000000000600052602160045260246000fd5b60805160601c60a05160c05160601c60e0516101005160c01c6101205160e01c61014051611479620003e0600039600061063f015260006104cf015260006104ac0152600061048b0152600061044f0152600081816102b401526106c70152600081816102da015261032e01526114796000f3fe6080604052600436106100a75760003560e01c8063565429de11610064578063565429de146101aa5780636b68c03c146101d55780636e04ff0d146102005780638ba05b0e1461023e578063c1af578514610269578063e55ae4e814610273576100a7565b806309bc33a7146100ac5780631fe543e3146100d75780634585e33b14610100578063473f1ddc146101295780634c44fa851461015457806353a2c19a1461017f575b600080fd5b3480156100b857600080fd5b506100c16102b0565b6040516100ce9190610b7e565b60405180910390f35b3480156100e357600080fd5b506100fe60048036038101906100f99190610d32565b6102d8565b005b34801561010c57600080fd5b5061012760048036038101906101229190610e43565b610398565b005b34801561013557600080fd5b5061013e610596565b60405161014b9190610ecd565b60405180910390f35b34801561016057600080fd5b506101696105c0565b6040516101769190610b7e565b60405180910390f35b34801561018b57600080fd5b506101946105cd565b6040516101a19190610b7e565b60405180910390f35b3480156101b657600080fd5b506101bf6105da565b6040516101cc9190610b7e565b60405180910390f35b3480156101e157600080fd5b506101ea6105e6565b6040516101f79190610f5f565b60405180910390f35b34801561020c57600080fd5b5061022760048036038101906102229190610e43565b6105fd565b60405161023592919061101d565b60405180910390f35b34801561024a57600080fd5b506102536106bb565b6040516102609190610b7e565b60405180910390f35b6102716106c5565b005b34801561027f57600080fd5b5061029a6004803603810190610295919061104d565b610846565b6040516102a79190610ecd565b60405180910390f35b60007f0000000000000000000000000000000000000000000000000000000000000000905090565b7f000000000000000000000000000000000000000000000000000000000000000073ffffffffffffffffffffffffffffffffffffffff163373ffffffffffffffffffffffffffffffffffffffff161461038a57337f00000000000000000000000000000000000000000000000000000000000000006040517f1cf993f400000000000000000000000000000000000000000000000000000000815260040161038192919061107a565b60405180910390fd5b610394828261088d565b5050565b60006103b2604051806020016040528060008152506105fd565b509050806104215747600080549050600160149054906101000a900460ff1660018111156103e3576103e2610ee8565b5b6040517f7d1fd579000000000000000000000000000000000000000000000000000000008152600401610418939291906110a3565b60405180910390fd5b60018060146101000a81548160ff0219169083600181111561044657610445610ee8565b5b021790555060007f000000000000000000000000000000000000000000000000000000000000000073ffffffffffffffffffffffffffffffffffffffff16635d3b1d307f00000000000000000000000000000000000000000000000000000000000000007f000000000000000000000000000000000000000000000000000000000000000060037f000000000000000000000000000000000000000000000000000000000000000060016040518663ffffffff1660e01b815260040161051095949392919061118d565b602060405180830381600087803b15801561052a57600080fd5b505af115801561053e573d6000803e3d6000fd5b505050506040513d601f19601f8201168201806040525081019061056291906111f5565b9050807fcd6e45c8998311cab7e9d4385596cac867e20a0587194b954fa3a731c93ce78b60405160405180910390a2505050565b6000600160009054906101000a900473ffffffffffffffffffffffffffffffffffffffff16905090565b6000600361ffff16905090565b6000600161ffff16905090565b60008080549050905090565b6000600160149054906101000a900460ff16905090565b60006060600080600181111561061657610615610ee8565b5b600160149054906101000a900460ff16600181111561063857610637610ee8565b5b14905060007f00000000000000000000000000000000000000000000000000000000000000006002544261066c9190611251565b1190506000806000805490501190506000804711905083801561068c5750825b80156106955750815b801561069e5750805b604051806020016040528060008152509550955050505050915091565b6000600254905090565b7f0000000000000000000000000000000000000000000000000000000000000000341015610728576040517f08c379a000000000000000000000000000000000000000000000000000000000815260040161071f906112e2565b60405180910390fd5b6000600181111561073c5761073b610ee8565b5b600160149054906101000a900460ff16600181111561075e5761075d610ee8565b5b1461079e576040517f08c379a00000000000000000000000000000000000000000000000000000000081526004016107959061134e565b60405180910390fd5b6000339080600181540180825580915050600190039060005260206000200160009091909190916101000a81548173ffffffffffffffffffffffffffffffffffffffff021916908373ffffffffffffffffffffffffffffffffffffffff1602179055503373ffffffffffffffffffffffffffffffffffffffff167f1d64fb5ba9f2548c5b98468d58f25b87b9e866afee0122e92d9fe722bf85076c60405160405180910390a2565b600080828154811061085b5761085a61136e565b5b9060005260206000200160009054906101000a900473ffffffffffffffffffffffffffffffffffffffff169050919050565b60008080549050826000815181106108a8576108a761136e565b5b60200260200101516108ba91906113cc565b905060008082815481106108d1576108d061136e565b5b9060005260206000200160009054906101000a900473ffffffffffffffffffffffffffffffffffffffff16905080600160006101000a81548173ffffffffffffffffffffffffffffffffffffffff021916908373ffffffffffffffffffffffffffffffffffffffff1602179055506000600160146101000a81548160ff0219169083600181111561096557610964610ee8565b5b0217905550600067ffffffffffffffff81111561098557610984610bef565b5b6040519080825280602002602001820160405280156109b35781602001602082028036833780820191505090505b50600090805190602001906109c9929190610abe565b504260028190555060008173ffffffffffffffffffffffffffffffffffffffff16476040516109f79061142e565b60006040518083038185875af1925050503d8060008114610a34576040519150601f19603f3d011682016040523d82523d6000602084013e610a39565b606091505b5050905080610a74576040517fc7c24b4e00000000000000000000000000000000000000000000000000000000815260040160405180910390fd5b8173ffffffffffffffffffffffffffffffffffffffff167f5b690ec4a06fe979403046eaeea5b3ce38524683c3001f662c8b5a829632f7df60405160405180910390a25050505050565b828054828255906000526020600020908101928215610b37579160200282015b82811115610b365782518260006101000a81548173ffffffffffffffffffffffffffffffffffffffff021916908373ffffffffffffffffffffffffffffffffffffffff16021790555091602001919060010190610ade565b5b509050610b449190610b48565b5090565b5b80821115610b61576000816000905550600101610b49565b5090565b6000819050919050565b610b7881610b65565b82525050565b6000602082019050610b936000830184610b6f565b92915050565b6000604051905090565b600080fd5b600080fd5b610bb681610b65565b8114610bc157600080fd5b50565b600081359050610bd381610bad565b92915050565b600080fd5b6000601f19601f8301169050919050565b7f4e487b7100000000000000000000000000000000000000000000000000000000600052604160045260246000fd5b610c2782610bde565b810181811067ffffffffffffffff82111715610c4657610c45610bef565b5b80604052505050565b6000610c59610b99565b9050610c658282610c1e565b919050565b600067ffffffffffffffff821115610c8557610c84610bef565b5b602082029050602081019050919050565b600080fd5b6000610cae610ca984610c6a565b610c4f565b90508083825260208201905060208402830185811115610cd157610cd0610c96565b5b835b81811015610cfa5780610ce68882610bc4565b845260208401935050602081019050610cd3565b5050509392505050565b600082601f830112610d1957610d18610bd9565b5b8135610d29848260208601610c9b565b91505092915050565b60008060408385031215610d4957610d48610ba3565b5b6000610d5785828601610bc4565b925050602083013567ffffffffffffffff811115610d7857610d77610ba8565b5b610d8485828601610d04565b9150509250929050565b600080fd5b600067ffffffffffffffff821115610dae57610dad610bef565b5b610db782610bde565b9050602081019050919050565b82818337600083830152505050565b6000610de6610de184610d93565b610c4f565b905082815260208101848484011115610e0257610e01610d8e565b5b610e0d848285610dc4565b509392505050565b600082601f830112610e2a57610e29610bd9565b5b8135610e3a848260208601610dd3565b91505092915050565b600060208284031215610e5957610e58610ba3565b5b600082013567ffffffffffffffff811115610e7757610e76610ba8565b5b610e8384828501610e15565b91505092915050565b600073ffffffffffffffffffffffffffffffffffffffff82169050919050565b6000610eb782610e8c565b9050919050565b610ec781610eac565b82525050565b6000602082019050610ee26000830184610ebe565b92915050565b7f4e487b7100000000000000000000000000000000000000000000000000000000600052602160045260246000fd5b60028110610f2857610f27610ee8565b5b50565b6000819050610f3982610f17565b919050565b6000610f4982610f2b565b9050919050565b610f5981610f3e565b82525050565b6000602082019050610f746000830184610f50565b92915050565b60008115159050919050565b610f8f81610f7a565b82525050565b600081519050919050565b600082825260208201905092915050565b60005b83811015610fcf578082015181840152602081019050610fb4565b83811115610fde576000848401525b50505050565b6000610fef82610f95565b610ff98185610fa0565b9350611009818560208601610fb1565b61101281610bde565b840191505092915050565b60006040820190506110326000830185610f86565b81810360208301526110448184610fe4565b90509392505050565b60006020828403121561106357611062610ba3565b5b600061107184828501610bc4565b91505092915050565b600060408201905061108f6000830185610ebe565b61109c6020830184610ebe565b9392505050565b60006060820190506110b86000830186610b6f565b6110c56020830185610b6f565b6110d26040830184610b6f565b949350505050565b6000819050919050565b6110ed816110da565b82525050565b600067ffffffffffffffff82169050919050565b611110816110f3565b82525050565b600061ffff82169050919050565b61112d81611116565b82525050565b600063ffffffff82169050919050565b61114c81611133565b82525050565b6000819050919050565b600061117761117261116d84611116565b611152565b611133565b9050919050565b6111878161115c565b82525050565b600060a0820190506111a260008301886110e4565b6111af6020830187611107565b6111bc6040830186611124565b6111c96060830185611143565b6111d6608083018461117e565b9695505050505050565b6000815190506111ef81610bad565b92915050565b60006020828403121561120b5761120a610ba3565b5b6000611219848285016111e0565b91505092915050565b7f4e487b7100000000000000000000000000000000000000000000000000000000600052601160045260246000fd5b600061125c82610b65565b915061126783610b65565b92508282101561127a57611279611222565b5b828203905092915050565b600082825260208201905092915050565b7f4e6f7420656e6f7567682045544820656e746572656421000000000000000000600082015250565b60006112cc601783611285565b91506112d782611296565b602082019050919050565b600060208201905081810360008301526112fb816112bf565b9050919050565b7f4c6f7474657279206e6f74206f70656e21000000000000000000000000000000600082015250565b6000611338601183611285565b915061134382611302565b602082019050919050565b600060208201905081810360008301526113678161132b565b9050919050565b7f4e487b7100000000000000000000000000000000000000000000000000000000600052603260045260246000fd5b7f4e487b7100000000000000000000000000000000000000000000000000000000600052601260045260246000fd5b60006113d782610b65565b91506113e283610b65565b9250826113f2576113f161139d565b5b828206905092915050565b600081905092915050565b50565b60006114186000836113fd565b915061142382611408565b600082019050919050565b60006114398261140b565b915081905091905056fea2646970667358221220b46128d4363cb23d6e2fcb75781e7851a6f3eab4514e6e89c1c72a945886998764736f6c63430008080033",
  "linkReferences": {},
  "deployedLinkReferences": {}
}